:1000000000308A0019280000213084008313000882
:10001000031918280130F800F701F70B0D28F80B29
:100020000C284A30F700F70B13281628800B0A28F3
:100030000800A00183161F149F141F159F1107307D
:100040009C0083131F30830500308600FF3085003D
:10005000860183128601831605158312051D2B2840
:1000600083168601053083128600831605148312D9
:10007000051C35284630A100042083160514831280
:1000800005183D284630A1000420A00A20080A3C9B
:10009000031D3528831686011830831286008316C7
:1000A00085148312851C4F284630A1000420831636
:1000B00085148312851857284630A1000420831622
:0E00C0008601053083128600A00135286300FA
:02400E00313F40
:00000001FF
;PIC16F877A
;CRC=3522  CREATED="09-Tem-23 13:38"
